:03000000020A35BC
:0C0A3500787FE4F6D8FD7581D6020A7CBB
:100F7000120F2E120D8CE4F508F509120CBE1206A4
:030F80005A80F89C
:100ED600E4FDFCC3ED9FEC9E5015E4FBFA0BBB0052
:0F0EE600010AEB647B4A70F50DBD00010C80E43E
:010EF50022DA
:10000E00A907C2A57F017E00120ED6D2A789801243
:05001E000ED6C2A7226E
:100F4600A907D2A57F017E00120ED68980D2A712EC
:050F56000ED6C2A72227
:100E19008B5B8A5C895DAB5BAA5CA95D120382FF6F
:100E2900D394004010120F467401255DF55DE43539
:060E39005CF55C80E12283
:100F2E00C2A7C2A67F3812000E7F0C12000E7F06DB
:080F3E0012000E7F0102000EFB
:100EB10025632025632025632025632020253464B4
:100EC1002020200031203220332034204E4F572063
:050ED1004E554D3A00F2
:040FA8007F647E00E4
:0B0FAC00EF1FAC0670011E4C70F62217
:100DCA0020A40B30A4FD0509E5097002050820A33B
:100DDA001630A3FDD3E5099400E50894004008E520
:080DEA00091509700215082229
:100D040020900B120FA8209008750A598003750AC9
:100D14004E20910B120FA8209108750B5980037572
:100D24000B4E20920B120FA8209208750C598003C9
:100D3400750C4E20930A120FA8209307750D5922A3
:040D4400750D4E22B9
:100CBE00755EFF755F0E7560B1850A61850B628585
:100CCE000C63850D648508658509667B007A00795D
:100CDE000E120082120D047F8012000E7BFF7A0E20
:100CEE0079C5120E197FC012000E7B007A00790EA4
:060CFE00120E19020DCADE
:1005250041542B435245473F004154004F4B004136
:10053500542B4350494E3F005245414459004154C4
:1005450045300041542B43504D533D22534D222CF1
:10055500224D45222C22534D220041542B434E4D12
:10056500493D322C310041542B434D47463D310026
:1005750041542B435343533D2247534D22002253AD
:100585004D222C0041542B434D47523D0041542BE5
:10059500434D47533D2200220D003E0020496E6920
:1005A5007469616C697A6564204F4B20002B434D5B
:1005B500544900696E666F726D6174696F6E0020D3
:1005C50046696E64202053756363657373656400C3
:1005D5007061726B313A25630A207061726B323A31
:1005E50025630A207061726B333A25630A207061B6
:1005F500726B343A25630A206E6F77204E756D3A1B
:100605002564002053656E6420205375636365730C
:10061500736564002053656E6420204661696C65CE
:1006250064202020002046696E6420202020466139
:10063500696C656420005468697320636F6D6D6132
:100645006E64206973206E6F7420737570706F729D
:05065500746564210042
:0D0FD40001220001580001230002B81A009C
:100F83005389F0438901758AE0758CB1C28DD2A96A
:030F9300D28C22DB
:100F150053877F75985053890F438920758BFD75CD
:090F25008DFDC2ABD28ED2AC22CC
:0208ED008F5921
:1008EF00E4F55A120FC6E55A60030209A47BFF7A9A
:1008FF00057925120E8B120FB7E4FF74002FF582C6
:10090F00E43400F583E0642B707374012FF582E4F7
:10091F003400F583E06443706474022FF582E4348D
:10092F0000F583E06452705574032FF582E43400B0
:10093F00F583E06445704674042FF582E43400F5C6
:10094F0083E06447703774052FF582E43400F58334
:10095F00E0643A702874072FF582E43400F583E0E1
:10096F00B4311A74092FF582E43400F583E0FE6484
:10097F00316004EEB43506755A017F01220FEF6422
:10098F0055600302090A055BE55BD39559500302D5
:07099F0008F57F00227F0034
:0109A600222E
:100BB9007563FF756405756531756603756700753D
:100BC90068327BFF7A05792E120C857E00EF70055D
:100BD9007EFF7FFF227563FF75640575653D756648
:100BE900027567007568327BFF7A057934120C85C6
:100BF9007E00EF70057EFF7FFE227F031208EDEF76
:0B0C090070057EFF7FFD227E007F0152
:010C140022BD
:100B43007BFF7A057943120E8B7F327E00120FBB37
:100B53007BFF7A057948120E8B7F327E00120FBB22
:100B63007563FF7564057565317566037567007593
:100B730068647BFF7A05795F120C85EF70057EFF51
:100B83007FDF227563FF75640575653175660375CF
:100B930067007568327BFF7A05796B120C85EF70FD
:100BA300057EFF7FFA22120C6DEF70057EFF7FF941
:050BB300227E007F011D
:010BB800221A
:10074D007E007F047D007B007A0079881204B17EE3
:10075D00007F0F7D007B007A00798C1204B17570DB
:10076D00FF7571057572837B017A007900120AC1DC
:10077D008B5B8A5C895D7BFF7A057983120F5B8FBA
:10078D005F855F5EE55D455C455B6037AB5BAA5C95
:10079D00A95D855E8275830012039BFF640D602841
:1007AD00E55F2403FDE433FCE55EC39DEC6480F856
:1007BD007480985013C3E55E955F2488F8A60705ED
:1007CD005E80C97EFF7FEA227E007F0F7D007B0069
:1007DD007A00798C1204B1788C7C007D007BFF7AD5
:1007ED000579891204947563007564007565887BBD
:1007FD00007A00798C120C157563FF7564057565AB
:10080D00317566037567007568C87B007A00798C51
:05081D00120C857E00B5
:0108220022B3
:100823007E007F0C7D007B007A0079791204B1E4AD
:10083300FF74002FF582E43400F583E0B4222374BF
:10084300012FF582E43400F583E0B42C1574022FF4
:10085300F582E43400F583E0B42207EF2403F55B6B
:1008630080040FBF55CBE4FF7400255BF582E434AD
:1008730000F583E0FE64226011EFC3940E500B7405
:10088300792FF8A606055B0F80DE7E007F197D00B9
:100893007B007A0079BA1204B178BA7C007D007BC0
:1008A300FF7A057992120494756300756400756587
:1008B300797B007A0079BA120C157563FF756405AC
:1008C30075659C7B007A0079BA120C157E007F1E39
:1008D3007D007B007A00799B1204B1789B7C007DBC
:0A08E300007B007A0079BA02049449
:0609A7008B5B8A5C895D98
:1009AD0078B8761AE408F67563FF756405756531D8
:1009BD00756603F5677568327BFF7A05796B120CE6
:1009CD0085EF70057EFF7FFA22120C6DEF70057EAC
:1009DD00FF7FF9227563FF75640575659F75660365
:1009ED007567007568327B007A00799B120C85EF74
:1009FD0070057EFF7FF822AB5BAA5CA95D120EF637
:100A0D007563FF75640575653175660175670075EC
:100A1D0068FA7B007A0079B8120C85EF70057EFFBD
:070A2D007FF7227E007F012C
:010A3400229F
:03000B00020E3FA3
:100E3F00C0E0C0D0C28C758AE0758CB1D3E5259423
:100E4F0000E52494004008E525152570021524D2ED
:060E5F008CD0D0D0E0327F
:03002300020D4883
:100D4800C0E0C083C082C0D030982BC29874002500
:100D580022F582E43400F583E599F00522E522C303
:100D680094554003752200E558B4010AE522D3944E
:100D7800064003752301309902C299D0D0D082D0A1
:040D880083D0E03202
:0D0FC6007F55900000E4F0A3DFFCE4F5226D
:010FD30022FB
:100E65008B6A8A6B896CC2AC8B708A7189727B01C3
:100E75007A007900120AC1E94A4B6005D2AC7F01BC
:060E850022D2AC7F002226
:060F960014F9120382FFB2
:0C0F9C00C2AC8F993099FDC299D2AC22F2
:100EF6008B5E8A5F8960AB5EAA5FA960120382601F
:0F0F06000D0560E5607002055F120F9680E8220E
:100E8B008B6A8A6B896C120FC6AB6AAA6BA96C1240
:100E9B000382600D056CE56C7002056B120F96807A
:060EAB00E87F0D020F9C20
:100C6D007563FF7564057565317566037567007588
:080C7D0068327BFF7A057975EE
:060C85008B608A618962A8
:100C8B00120FC6E4F569E569C395665023AB60AAFC
:100C9B0061A962120E8BAF68AE67120FBBAB63AA72
:100CAB0064A965120E65EF60037F0122056980D68A
:020CBB007F00B8
:010CBD002214
:040FB7007F647E00D5
:0B0FBB008E248F25E525452470FA22C6
:100D8C00120F15120F83D2AFE4FDFC7F327E0012DE
:100D9C000FBB0DBD00010CED64144C70EE120BB9C1
:100DAC00120B43120FC67558017F8012000E7BFF89
:0E0DBC007A0579A1120E197F647E00020FBB2A
:10065A00E5236401600302074C7F05FE120FBB7B92
:10066A00FF7A0579B2120E65EF700302074C120782
:10067A004D8E598F5AE55A64014559600302074C59
:10068A007BFF7A0579B8120E65EF606B7FC01200A6
:10069A000E7BFF7A0579C4120E19120FB7120823BE
:1006AA00755EFF755F057560D5850A61850B628584
:1006BA000C63850D648508658509667B007A007977
:1006CA00261200827B007A0079261209A78E598F9A
:1006DA005AE55A640145597FC0700B12000E7BFF20
:1006EA007A067908800912000E7BFF7A06791912B8
:1006FA000E19120FB780457FC012000E7BFF7A06D3
:10070A00792A120E19120FB71208237BFF7A06797B
:10071A003B1209A78E598F5AE55A640145597FC081
:10072A00700B12000E7BFF7A067908800912000E00
:10073A007BFF7A067919120E19120FB7120FC6E447
:02074A00F52395
:01074C00228A
:100A4100020F70E493A3F8E493A34003F68001F24C
:100A510008DFF48029E493A3F85407240CC8C333B6
:100A6100C4540F4420C8834004F456800146F6DF85
:100A7100E4800B0102040810204080900FD4E47E32
:100A8100019360BCA3FF543F30E509541FFEE4937A
:100A9100A360010ECF54C025E060A840B8E493A341
:100AA100FAE493A3F8E493A3C8C582C8CAC583CA6C
:100AB100F0A3C8C582C8CAC583CADFE9DEE780BE24
:010FE100000F
:10038200BB010689828A83E0225002E722BBFE0279
:09039200E32289828A83E49322AC
:10039B00BB010CE58229F582E5833AF583E0225017
:1003AB0006E92582F8E622BBFE06E92582F8E22261
:0D03BB00E58229F582E5833AF583E493227B
:10002600E56A245EF8E6056A22785B300702785EA8
:10003600E475F0011204EF0203822000EB7F2ED25A
:10004600008018EF540F2490D43440D4FF30040BB2
:10005600EF24BFB41A0050032461FFE56B6002155C
:100066006B056EE56E7002056D30070D785BE47505
:10007600F0011204EFEF0204DD020DF27403D20761
:100086008003E4C207F56A8B5B8A5C895DE4F56BE5
:10009600F56DF56EE56B60077F2012006180F575E2
:1000A6006CFFC201C200C202C203C205C206C20878
:1000B60012002FFF700D3007057F00120072AF6E21
:1000C600AE6D22B4255FC2D5C20412002FFF24D024
:1000D600B40A00501A75F00A786B30D50508B6FFD9
:1000E6000106C6A426F620D5047002D20380D924C0
:1000F600CFB41A00EF5004C2E5D204020272D20154
:1001060080C6D20080C0D20280BCD2D580BAD205C9
:1001160080B47F201200612002077401B56B004095
:10012600F1120026FF12006102009AD208D2068060
:1001360095120026FB120026FA120026F94A4B7089
:100146000679437A037BFF20022EE56B602A7E0048
:100156008E8275830012039B60060EEE656C70F04E
:10016600C2D5EBC0E0EAC0E0E9C0E0EE1202B9D0C9
:10017600E0F9D0E0FAD0E0FB120382FF60AAEBC000
:10018600E0EAC0E0E9C0E0120061D0E02401F9D065
:10019600E03400FAD0E0FBE56C0460DCD56CD98075
:1001A600877BFF7A0279B5D202809C79108002792A
:1001B60008C206C2088008D2D5790A8004790AC224
:1001C600D5E56C047002F56CE4FAFDFEFF1200261C
:1001D600FC7B08200113120026FD7B1030000A125A
:1001E6000026FE120026FF7B20EC3382D592D550E6
:1001F60013C3E43000069FFFE49EFEE42001039D46
:10020600FDE49CFCE4CBF8C201EC700CCFCECDCC67
:10021600E824F8F870F38017C3EF33FFEE33FEEDF2
:1002260033FDEC33FCEB33FB994002FB0FD8E9EBD3
:10023600300105F8D0E0C448B201C0E00AEC4D4EEA
:100246004F78207B0070C2EAB56C0040BCC0E0125B
:1002560002BBD0F0D0E0200104C4C0E0C4B201C0AB
:10026600F012004AD0F0D5F0EB02009A1204FF011A
:10027600375301B15801084C01044201B54F01BD85
:0F0286004401BD49011D4301C35501A74601A70E
:100295004501A747036350010C2D01102E01332B97
:1002A500011423013120034C2A00CC480000012B06
:1002B5003F3F3F00790AA2D5200314300509B91044
:1002C500020404B9080104A2D52006025001042045
:1002D50002689202B56B005034C0E07F20300319EC
:1002E5007F30A20272067205500F120312C202C2BB
:1002F50006C205C2087F30800F300503E9C0E01251
:100305000061300503D0E0F9D0E0B56BCC300517BE
:100315007F30B9100C1200617F583004077F788058
:1003250003B908031200613002057F2D0200617FC9
:10033500202008F87F2B2006F322920280CF286E1A
:10034500756C6C2900D2011200263001F8C20178C3
:100355006B30D50108F60200CC2D504349581200E8
:10036500262403B405004001E490035E9312005275
:0D037500743A120052D203756B040201B1FC
:100C15008B608A6189628B668A678968AB600562C9
:100C2500E562AA617002056114F912038270ED7420
:100C3500FF2562F56274FF3561F561AB630565E516
:100C450065AA647002056414F9120382FFAB60059E
:100C550062E562AA617002056114F9EF1204DD70A4
:080C6500DAAB66AA67A9682258
:1003C800E709F60870FA8046E709F20870FA803EF5
:1003D80088828C83E709F0A370FA807EE309F60827
:1003E80070FA8076E309F20870FA806E88828C834E
:1003F800E309F0A370FA806289828A83E0A3F60891
:1004080070FA805689828A83E0A3F20870FA804ADB
:1004180080D280FA80C680D4806580F280318010D6
:1004280080A680EA809A80A880DA80E280CA80313B
:1004380089828A83ECFAE493A3C8C582C8CCC583B1
:10044800CCF0A3C8C582C8CCC583CC70E9800D891F
:10045800828A83E493A3F60870F9ECFAA9F0EDFB1D
:100468002289828A83ECFAE0A3C8C582C8CCC583F6
:10047800CCF0A3C8C582C8CCC583CC70EA80DD891E
:10048800828A83E493A3F20870F980CE88F0ED2481
:1004980002B4040050C4F582EB2402B4040050BA3C
:0904A800232345822390041873FC
:100F5B00E4FFFE120382600C0FEF70010E09E970C3
:050F6B00F20A80EF22F4
:100AC1008B6D8A6E896FAB70AA71A97212038260F5
:100AD10063AB6DAA6EA96F120382605F8570738527
:100AE10071748572758B768A778978AB73AA74A9CC
:100AF10075120382FF6023AB76AA77A9781203826D
:100B01006F7017042575F575E43574F57474012556
:100B110078F578E43577F57780D1AB73AA74A97548
:100B21001203827002800D7401256FF56FE4356E3A
:100B3100F56E809DAB6DAA6EA96F227B007A00795C
:020B4100002290
:1004B100EF4E6012EF60010EEDBB010B89828A8362
:1004C100F0A3DFFCDEFA2289F05007F709DFFCA96F
:0C04D100F022BBFEFCF309DFFCA9F022C6
:1004DD00BB010689828A83F0225002F722BBFE01FE
:0204ED00F322F8
:1004EF00FAE6FB0808E6F925F0F618E6CA3AF6220E
:1004FF00D083D082F8E4937012740193700DA3A38C
:10050F0093F8740193F5828883E47374029368609F
:06051F00EFA3A3A380DF9F
:100DF200EFB40A07740D120DFD740A309811A89908
:100E0200B8130CC2983098FDA899C298B811F63060
:070E120099FDC299F5992238
:00000001FF
