:03000000021310D8
:0C131000787FE4F6D8FD75814002135789
:06189D00012900013200E8
:1014D3007BD07A07EF2BFBE43AFAED6401601CED55
:1014E30064036017ED64056012ED6407600DED643D
:1014F300086008ED640A6003BD0C037F1F22ED64DE
:1015030004600DED64066008ED64096003BD0B0320
:101513007F1E227C017D90AF03AE02120EB3ED4C11
:0C1523007005EB540360037F1C227F1D49
:01152F002299
:10161800D2935307FEE4FEEF30E004D2928002C278
:1016280092D291C291EFC313FF0EBE08EAE4FEED19
:1016380030E004D2928002C292D291C291EDC313DB
:07164800FD0EBE08EAC2938B
:01164F002278
:1015DD00D293430701E4FDEF30E004D2928002C2C2
:1015ED0092D291C291EFC313FF0DBD08EAE4FDEE57
:1015FD00C313FE309205430680800353067FD291BC
:0A160D00C2910DBD08E9C293AF06BB
:0116170022B0
:10139C007F0174212FF8E6FE75F00A120E66FDEE41
:1013AC0075F00A120E66AEF074332FF8A606EDC473
:1013BC0054F0FE74332FF8EE26F60FBF08D4E4FD7C
:1013CC007F8E1216187D807F80121618AD347F8C9C
:1013DC00121618AD357F88121618AD367F86121688
:1013EC0018AD377F84121618AD387F82121618ADDF
:1013FC00397F80121618AD3A7F8A1216187D807FBD
:04140C008E0216181E
:101530007F8C1215DD8F347F881215DD8F357F8605
:101540001215DD8F367F841215DD8F377F821215DD
:10155000DD8F387F801215DD8F397F8A1215DD8F80
:101560003A7F0174332FF8E6FEC4540FFDEE540F9A
:10157000FE74212FF8A606ED75F00AA4FE74212F43
:08158000F8EE26F60FBF08DBB0
:011588002240
:0B186E00C293C291E4FD7F80021618B7
:0518AB001218B0D296F6
:0118B0002215
:0A187900D2971218ABC2970218B004
:0A188300C2971218ABD2970218B0FA
:0A177000C2951218797FA01217D25B
:10177A00D2961218B030970BE50AC394FA500405B2
:08178A000A80F2C2960218B0B9
:0C186200C295D2971218B0D2960218B0AE
:1017D200E4FEEF25E0FFC2961218B092971218AB02
:0E17E2000EBE08EEC2961218B0D2970218B0D2
:1016DF00C2961218B0D2971218B0E4FED296121812
:1016EF00B0EF25E0FDA297E4334DFFC2961218B07C
:0416FF000EBE08E82B
:0117030022C3
:1017F000AC07121770AF041217D212177AAF051286
:0818000017D212177A021883B7
:0217B300AD0780
:1017B500121770AF051217D212177A1218797FA176
:0C17C5001217D212177A1216DF121883C6
:0117D10022F5
:041729007F0A7E00B5
:10172D00E4FDFCC3ED9FEC9E5015E4FBFA0BBB00F2
:0F173D00010AEB646E4A70F50DBD00010C80E4EB
:01174C00227A
:10181F00D288758901758C3C758AB0D2AFD2A9D2A6
:04182F00A8D28C228D
:10059B00E529600302094DE532600302094D12158E
:1005AB00307F8012188DE52275F00A120E6624300A
:1005BB00FF121895E52275F00A120E66AFF0EF24C4
:1005CB0030FF1218957F8312188DE52375F00A12F0
:1005DB000E662430FF121895E52375F00A120E668D
:1005EB00AFF0EF2430FF1218957F8612188DE5249B
:1005FB0075F00A120E662430FF121895E52475F07B
:10060B000A120E66AFF0EF2430FF1218957F891295
:10061B00188DE52575F00A120E662430FF12189519
:10062B00E52575F00A120E66AFF0EF2430FF1218B5
:10063B00957F8C12188DE52675F00A120E66243004
:10064B00FF121895E52675F00A120E66AFF0EF242F
:10065B0030FF1218957F8F12188DE52814FF121892
:10066B0095E52A6527600F85272A7F8B12188D7FCA
:10067B003A121895D20020000A7F8B12188D7F201A
:10068B001218957FC012188D7B407A42790F780033
:10069B00AF30AE2FAD2EAC2D120F93E4FBFAF9F861
:1006AB00C312103370047F2080177B407A42790F7E
:1006BB007800AF30AE2FAD2EAC2D120F93EF243050
:1006CB00FF1218957B407A42790F7800AF30AE2F2E
:1006DB00AD2EAC2D120F93AC00AD01AE02AF037B70
:1006EB00A07A8679017800120F93E4FBFAF9F8C32C
:1006FB0012103370047F20802A7B407A42790F7866
:10070B0000AF30AE2FAD2EAC2D120F93AC00AD0160
:10071B00AE02AF037BA07A8679017800120F93EFBC
:10072B002430FF1218957B407A42790F7800AF3056
:10073B00AE2FAD2EAC2D120F93AC00AD01AE02AFB0
:10074B00037BA07A8679017800120F93AC00AD0180
:10075B00AE02AF03E47B107A27F9F8120F93EF2464
:10076B0030FF1218957FC412188D7B407A42790F97
:10077B007800AF30AE2FAD2EAC2D120F93AC00AD79
:10078B0001AE02AF037BA07A8679017800120F933A
:10079B00AC00AD01AE02AF03E47B107A27F9F8127F
:1007AB000F93AC00AD01AE02AF03E47BE87A03F923
:1007BB00F8120F93EF2430FF1218957B407A427991
:1007CB000F7800AF30AE2FAD2EAC2D120F93AC00C7
:1007DB00AD01AE02AF037BA07A8679017800120FD0
:1007EB0093AC00AD01AE02AF03E47B107A27F9F8AE
:1007FB00120F93AC00AD01AE02AF03E47BE87A03BA
:10080B00F9F8120F93AC00AD01AE02AF03E47B64B9
:10081B00FAF9F8120F93EF2430FF1218957B407AF8
:10082B0042790F7800AF30AE2FAD2EAC2D120F9357
:10083B00AC00AD01AE02AF037BA07A8679017800E4
:10084B00120F93AC00AD01AE02AF03E47B107A271D
:10085B00F9F8120F93AC00AD01AE02AF03E47BE8E5
:10086B007A03F9F8120F93AC00AD01AE02AF03E4BB
:10087B007B64FAF9F8120F93AC00AD01AE02AF0333
:10088B00E47B0AFAF9F8120F93EF2430FF12189554
:10089B001211567FC912188DE47B64FAF9F8AF3E3A
:1008AB00AE3DAD3CAC3B120F93E4FBFAF9F8C3122F
:1008BB00103370047F208015E47B64FAF9F8AF3EA7
:1008CB00AE3DAD3CAC3B120F93EF2430FF121895AD
:1008DB00E47B0AFAF9F8AF3EAE3DAD3CAC3B120FF0
:1008EB0093E4FBFAF9F8C312103370047F208026CF
:1008FB00E47B64FAF9F8AF3EAE3DAD3CAC3B120F76
:10090B0093AC00AD01AE02AF03E47B0AFAF9F81227
:10091B000F93EF2430FF121895E47B64FAF9F8AFCC
:10092B003EAE3DAD3CAC3B120F93AC00AD01AE0205
:10093B00AF03E47B0AFAF9F8120F93EB2430FF02B2
:10094B001895E5297003020A2614B4080040030227
:10095B000B0890096B75F003A4C58325F0C5837351
:10096B000209830209CC0209D10209D60209DB0272
:10097B0009E00209E50209EA7FC012188DE4F53F90
:10098B00E53F9012FF93FF121895053FE53FC39487
:10099B001040ED7FCE12188DE52775F00A120E660A
:1009AB002430FF121895E52775F00A120E66AFF08A
:1009BB00EF2430FF1218957F0F12188D7F81020ADA
:1009CB00CA7F84020ACA7F87020ACA7F8A020ACABE
:1009DB007F8D020ACA7FCF020ACA7F8F020ACA7FA3
:1009EB000C12188D7F8012188DE4F53FE53F9012A5
:1009FB00BB93FF121895053FE53FC3941040ED7F65
:100A0B00C012188DE4F53FE53F9012CC93FF1218FE
:100A1B0095053FE53FC3941040ED22E5327003028C
:100A2B000B0824FE7003020AC8147003020ACD24BB
:100A3B00026003020B087F8012188DE4F53FE53F3F
:100A4B009012DD93FF121895053FE53FC3941040BC
:100A5B00ED7FC012188DE4F53FE53F9012EE93FF4A
:100A6B00121895053FE53FC3941040ED7F8C12188B
:100A7B008DE53175F00A120E662430FF121895E5DC
:100A8B003175F00A120E66AFF0EF2430FF12189595
:100A9B007FCA12188DE54075F00A120E662430FFDE
:100AAB00121895E54075F00A120E66AFF0EF243080
:100ABB00FF1218957F0F12188D7F8D80027FCB024E
:100ACB00188D7F0C12188D7F8012188DE4F53FE581
:100ADB003F9012BB93FF121895053FE53FC394104F
:100AEB0040ED7FC012188DE4F53FE53F9012CC939B
:0E0AFB00FF121895053FE53FC3941040ED2211
:10000E00E532703220B42F7F14FE12172DE53270B8
:10001E001E20B41BC2A07F3212172DD2A0052912AA
:10002E00059BE529C394084006E4F52912139CE5C7
:10003E0032700330B4F920B733E529702F7F14FEE8
:10004E0012172D20B71FE529701BC2A07F32121781
:10005E002DD2A0053212059BE532C394034006E46F
:10006E00F532121156E529700330B7F930B5030297
:10007E0002D5E5297007E53270030202D57F147EA2
:10008E000012172D30B5030202D2E5297007E532B2
:10009E0070030202D2C2A07F327E0012172DD2A0B0
:1000AE00E52914B40700400302025C9000C775F006
:1000BE0003A4C58325F0C583730200DC020113027D
:1000CE00014A02019A0201D102020702023D0522F3
:1000DE00C3E522648094E44003E4F5227F80121885
:1000EE008DE52275F00A120E662430FF121895E582
:1000FE002275F00A120E66AFF0EF2430FF1218953B
:10010E007F810202590523C3E5236480948D400349
:10011E007523017F8312188DE52375F00A120E6682
:10012E002430FF121895E52375F00A120E66AFF013
:10013E00EF2430FF1218957F840202590524AD2357
:10014E00AF221214D3EF2401FFE433FEAD24ED33BE
:10015E0095E0FCC3ED9FEE6480F8EC64809840035C
:10016E007524017F8612188DE52475F00A120E662D
:10017E002430FF121895E52475F00A120E66AFF0C2
:10018E00EF2430FF1218957F870202590525C3E52B
:10019E0025648094984003E4F5257F8912188DE537
:1001AE002575F00A120E662430FF121895E5257596
:1001BE00F00A120E66AFF0EF2430FF1218957F8A08
:1001CE000202590526C3E526648094BC4003E4F57B
:1001DE00267F8C12188DE52675F00A120E662430D5
:1001EE00FF121895E52675F00A120E66AFF0EF2491
:1001FE0030FF1218957F8D80520527C3E527648046
:10020E0094BC4003E4F5277FCE12188DE52775F0D8
:10021E000A120E662430FF121895E52775F00A12A1
:10022E000E66AFF0EF2430FF1218957FCF801C05BD
:10023E0028C3E5286480948840037528017F8F12B7
:10024E00188DE52814FF1218957F8F12188DE53240
:10025E0024FE603904706D0531C3E531648094C7A6
:10026E004003E4F5317F8C12188DE53175F00A12DA
:10027E000E662430FF121895E53175F00A120E66DF
:10028E00AFF0EF2430FF1218957F8D80340540C3F8
:10029E00E540648094E44003E4F5407FCA12188D73
:1002AE00E54075F00A120E662430FF121895E540EF
:1002BE0075F00A120E66AFF0EF2430FF1218957F1C
:1002CE00CB12188D30B5FD30B60302051DE5297031
:1002DE0007E532700302051D7F147E0012172D30C4
:1002EE00B60302051AE5297007E532700302051AF6
:1002FE00C2A07F327E0012172DD2A0E52914B407BA
:10030E000040030204A490032275F003A4C58325C4
:10031E00F0C5837302033702036E0203A50203E2E4
:10032E0002041902044F0204851522C3E5226480DB
:10033E00948050037522637F8012188DE52275F02C
:10034E000A120E662430FF121895E52275F00A1275
:10035E000E66AFF0EF2430FF1218957F810204A1D4
:10036E001523D3E52364809480500375230C7F837B
:10037E0012188DE52375F00A120E662430FF12183E
:10038E0095E52375F00A120E66AFF0EF2430FF12DA
:10039E0018957F840204A11524D3E52464809480EB
:1003AE005009AD23AF221214D38F247F8612188DDD
:1003BE00E52475F00A120E662430FF121895E52416
:1003CE0075F00A120E66AFF0EF2430FF1218957F0B
:1003DE00870204A11525C3E525648094805003751A
:1003EE0025177F8912188DE52575F00A120E6624E1
:1003FE0030FF121895E52575F00A120E66AFF0EF74
:10040E002430FF1218957F8A0204A11526C3E52613
:10041E0064809480500375263B7F8C12188DE526E0
:10042E0075F00A120E662430FF121895E52675F047
:10043E000A120E66AFF0EF2430FF1218957F8D80F2
:10044E00521527C3E52764809480500375273B7FA0
:10045E00CE12188DE52775F00A120E662430FF12A3
:10046E001895E52775F00A120E66AFF0EF2430FFEF
:10047E001218957FCF801C1528C3E52864809481BF
:10048E0050037528077F8F12188DE52814FF121858
:10049E00957F8F12188DE53224FE603904706D152C
:1004AE0031C3E5316480948050037531467F8C12E0
:1004BE00188DE53175F00A120E662430FF1218956C
:1004CE00E53175F00A120E66AFF0EF2430FF121808
:1004DE00957F8D80341540C3E54064809480500331
:1004EE007540637FCA12188DE54075F00A120E66CC
:1004FE002430FF121895E54075F00A120E66AFF023
:10050E00EF2430FF1218957FCB12188D30B6FD20D8
:10051E00B54520B642E53270047F0180027F00E5CA
:10052E002970047E0180027E00EE5F602AC2A07FE9
:10053E00647E0012172DD2A012172DC2A012172DF5
:10054E00D2A012172DE4F530F52FF52EF52D121140
:10055E005620B50330B6FA20B532E532702EE529B5
:10056E00702A12147320B508E5327004E52960F57F
:10057E007F8012188D7BFF7A1279BB12174D7FC0C8
:0D058E0012188D7BFF7A1279CC12174D22C6
:10179200AF40EF3395E0FEFDFCAB3EAA3DA93CA86D
:1017A2003BD31210334005C2A0C2A322D2A0D2A3BF
:0117B2002214
:1017040012186E1216501218621211F612181F8552
:10171400272AE529700AE532700612059B121792F2
:0517240012000E80ED33
:030003000218558B
:0D185500C0E0052CE52C7002052BD0E03220
:03000B000210449C
:10104400C0E0C0F0C083C082C0D075D000C000C072
:0D10540001C002C003C004C005C006C007F3
:10106100758C3C758AB0051030000E0511E511C371
:10107100940A4005751100C200E510C3940A50039B
:1010810002113B751000AF3EAE3DAD3CAC3BE412EE
:101091000DA77466FBFAF97840120D0AE4FBFA79A0
:1010A100207841120C01E4FBFAF97840120D0AC0D4
:1010B10004C005C006C007AF30AE2FAD2EAC2DE485
:1010C100120DA7D003D002D001D000120B10120DC7
:1010D100E58F308E2F8D2E8C2DE52C25E0FDE52B17
:1010E10033FCE4120DAC7BC37AF579487840120CDD
:1010F10001C004C005C006C007AC31EC120DB1D06F
:1011010003D002D001D000120C017B007A5079C3C8
:101111007847120D0AE4FBFA79E17845120C01E4F3
:10112100FBFA79207842120D0A120DE58F3E8E3DB1
:0A1131008D3C8C3B752B00752C00E3
:10113B00D007D006D005D004D003D002D001D00008
:0B114B00D0D0D082D083D0F0D0E032B2
:1011F6001217297F011217B38F311217297F021296
:1012060017B38F401217297F031217B3A9071217B6
:10121600297F041217B38F081217297F051217B3F7
:101226008F09AF01E4FCFDFE7BA07A867901F812F6
:101236000F08C004A905AA06AB07AF087E007C0309
:101246007DE8120EA1E4FCFDD000EB2FFFEA3EFE86
:10125600ED39FDEC38FCA804A905AA06AB07E5099B
:1012660075F00AA4FFE4FCFDEB2FFFEA35F0FEED76
:0C12760039FDEC388F308E2F8D2EF52DB9
:011282002249
:10115600121729AD317F011217F0121729AD407F02
:10116600021217F01217297BA07A8679017800AF50
:1011760030AE2FAD2EAC2D120F93AD077F03121795
:10118600F01217297BA07A8679017800AF30AE2F4E
:10119600AD2EAC2D120F93AC00AD01AE02AF03E441
:1011A6007BE87A03F9F8120F93AD077F041217F064
:1011B6001217297BA07A8679017800AF30AE2FAD61
:1011C6002EAC2D120F93AC00AD01AE02AF03E47B43
:1011D600E87A03F9F8120F93AC00AD01AE02AF0343
:1011E600E47B0AFAF9F8120F93AD077F050217F0B0
:10184500523A002520202000543A00432020200051
:10180800D2A21218A4C2A27F19121833D2A2121897
:07181800A41218A40218A499
:10168300E4F50E30A2FD1218A41218A41218A4E453
:10169300F50F30A203750F0120A2FDE51625E0F535
:1016A30016E50F4216050EE50EC3940840D5AF1696
:0116B3002214
:10158900121808D2A220A24B30A2FD20A2FD1216E9
:10159900838F0A1216838F0B1216838F08121683F4
:1015A9008F091216838F0CC2A2E4F50D1218A40537
:1015B9000DE50DC3940740F4D2A2E50A250B2508D1
:1015C9002509B50C0E850A12850B148508138509A2
:0315D90015F50CF9
:0115DC0022EC
:10183300AD071FED600BE4FEEEC3946450F20E801F
:01184300F7AD
:011844002281
:0618A400E4FF0FBF01FC90
:0118AA00221B
:101473001215897FC012188D7BFF7A1879451217D0
:101483004DE51275F00A842430FF121895E51275A4
:10149300F00A84E5F02430FF1218957BFF7A18795F
:1014A3004812174D7BFF7A18794D12174DE51375C6
:1014B300F00A842430FF121895E51375F00A84E5C9
:1014C300F02430FF1218957BFF7A18795002174DDC
:1012830004040404040404001F01011F10101F00C0
:101293001F01011F01011F001111111F0101010095
:1012A3001F10101F01011F001F10101F11111F001D
:1012B3001F0101010101010020202F20202F2020E8
:1012C3002020203A20202020002020302E303030D3
:1012D3006B6D2030306B6D2F6800576865656C202F
:1012E3005261646975732020636D005361666520E4
:1012F300537065656420206B6D2F68005365632010
:0D1303003A20202020202020202020200043
:0B16B4008F807F017E001216BFD290D5
:1016BF00E4FDFCC3ED9FEC9E5015E4FBFA0BBB0061
:0F16CF00010AEB646E4A70F50DBD00010C80E45A
:0116DE0022E9
:08188D00C2941216B4C29022AD
:08189500D2941216B4C2902295
:10174D008B088A09890AAB08AA09A90A120E88FF13
:10175D0060101218957401250AF50AE43509F5098A
:02176D0080E416
:01176F002257
:10141000E4F50CF50DF50E750F40F508F509E4F54A
:101420000AF50BE50F250BFF12188D7483250DF5BA
:10143000827412350CF583E493FF121895050DE5BF
:101440000D7002050C050BE50B7002050AC394082C
:10145000E50A940040CD7408250FF50FE4350EF52C
:101460000E0509E50970020508C39407E508940014
:0214700040AC8E
:011472002257
:101650001214107F3812188D7F0C12188D7F06120D
:10166000188D7F0112188D7F8012188D7BFF7A12E2
:1016700079BB12174D7FC012188D7BFF7A1279CC7F
:0316800002174D01
:100B0900020E51E86480F8E933E83360110460F0BB
:100B1900ED33EC337009E8FCE9FDEAFEEBFF220452
:100B290060DED3EB9FEA9EE99DE8C2E78CF0C2F74D
:100B390095F0400CE8CCF8E9CDF9EACEFAEBCFFB19
:100B4900120E1C85D0F05804700320D5B3E8047048
:100B5900075002B2D5020E5B92D5EC0460F7E4CCE3
:100B6900C0E0C398F8603B94186008400DD0E0FBE2
:100B7900020E33E4FBFAC9FC8028E830E406E4C934
:100B8900FBE4CAFCE830E305E4C9CACBFCE8540736
:100B99006010F8C3E913F9EA13FAEB13FBEC13FC41
:100BA900D8F130F52FC3E49CFCEF9BFFEE9AFEEDE4
:100BB90099FDD0E0FBEF4E4D4C701222DB03020E83
:100BC90058EC2CFCEF33FFEE33FEED33FDED30E74F
:100BD900EB020E33EF2BFFEE3AFEED39FDD0E0FBD1
:100BE90050130BBB0003020E5BED13FDEE13FEEF7A
:080BF90013FFEC13FC020E33A4
:100C0100EC4D6011E8497017ED33EC3304600DE4ED
:100C1100FCFFFEFD22E933E8330470F8020E5112A5
:100C21000E1C58046009E4CC2481500628500902A6
:100C31000E5B284003020E58C0E0EB4A7044B980B5
:100C410006D0E0FB020E47EF4E701CBD8008EBFFA3
:100C5100EAFEE9FD80EBE98DF0A4FEE5F0020CEA85
:100C6100E9CDF9EAFEEBFFEF89F0A4FCE5F0CE89CE
:100C7100F0A42EFFE435F0CD89F0A42DFEE435F08B
:100C81008067EF4E7005BD80D780C3EF8BF0A4ACB9
:100C9100F0EE8BF0A42CFCE435F0F8EF8AF0A42CF4
:100CA100E5F038FCE433CB8DF0A42CFCE5F03BF807
:100CB100EE8AF0A42CFCE5F038F8E433CF89F0A4F7
:100CC1002CFCE5F038CF3400CE89F0A42FFFE5F0FD
:100CD1003EFEE433C98DF0A42EFEE5F039CD8AF055
:100CE100A42FFFE5F03EFEE43DFD33D0E0FB5007CD
:100CF1000BBB000F020E5BEC2CFCEF33FFEE33FE5F
:060D0100ED33FD020E338C
:100D0700020E5BEC5D046005E859047003020E51A6
:100D1700120E1C580460F6EC4860F2EC7004FDFEFD
:100D2700FF22C860DB2481C85009C39860025006BF
:100D3700020E589850CAF582E9294B4A7005AB82D2
:100D4700020E4775F0007C1A7880C3EF9BEE9AED90
:100D570099400DC3EF9BFFEE9AFEED99FDE842F037
:100D6700DC23ACF0D0E0FFD0E0FED0E0FDAB82208A
:100D7700E7101BEB60BAEC2CFCEF33FFEE33FEED14
:100D870033FD020E33E803F830E705C0F075F000D5
:100D9700EF2FFFEE33FEED33FD40B830E7C280AAF8
:100DA70075F020800E75F010800575F0087D007EC7
:100DB700007F003392D530D503121025EC33401055
:100DC700EF33FFEE33FEED33FDEC33FCD5F0ED22D0
:0E0DD700E5F0247EA2D513CC92E7CDCEFF220C
:100DE500EDD2E7CD33EC3392D524814006E4FFFE06
:100DF500FDFC22FCE4CFCECDCC24E0501174FF8065
:100E0500EDC3CC13CCCD13CDCE13CECF13CF047001
:070E1500F030D5DE021025CC
:100E1C00E9D2E7C933E833F892D5EDD2E7CD33EC1C
:070E2C0033FC5002B2D52295
:100E3300EC30E7100FBF000C0EBE00080DBD000420
:100E43000BEB6014A2D5EB13FCED92E7FD2274FFCC
:100E5300FCFDFEFF22E480F8A2D574FF13FC7D8025
:030E6300E480EF39
:10131C00021704E493A3F8E493A34003F68001F2CC
:10132C0008DFF48029E493A3F85407240CC8C333D2
:10133C00C4540F4420C8834004F456800146F6DFA1
:10134C00E4800B010204081020408090189DE47E7C
:10135C00019360BCA3FF543F30E509541FFEE49396
:10136C00A360010ECF54C025E060A840B8E493A35D
:10137C00FAE493A3F8E493A3C8C582C8CAC583CA88
:10138C00F0A3C8C582C8CAC583CADFE9DEE780BE40
:0118A3000044
:100E6600C2D530F707B2D563F0FF05F030E70CB214
:100E7600D5F4048463F0FF05F080018430D502F4D4
:020E8600042244
:100E8800BB010689828A83E0225002E722BBFE0268
:090E9800E32289828A83E493229B
:100EA100EF8DF0A4A8F0CF8CF0A428CE8DF0A42E65
:020EB100FE221F
:100EB300BC000BBE0029EF8DF084FFADF022E4CC23
:100EC300F875F008EF2FFFEE33FEEC33FCEE9DECEC
:100ED300984005FCEE9DFE0FD5F0E9E4CEFD22ED32
:100EE300F8F5F0EE8420D21CFEADF075F008EF2F7C
:100EF300FFED33FD4007985006D5F0F222C398FD6D
:050F03000FD5F0EA2209
:100F0800E88FF0A4CC8BF0A42CFCE98EF0A42CFC88
:100F18008AF0EDA42CFCEA8EF0A4CDA8F08BF0A406
:100F28002DCC3825F0FDE98FF0A42CCD35F0FCEB65
:100F38008EF0A4FEA9F0EB8FF0A4CFC5F02ECD392A
:0F0F4800FEE43CFCEAA42DCE35F0FDE43CFC2297
:100F570075F008758200EF2FFFEE33FECD33CDCC51
:100F670033CCC58233C5829BED9AEC99E5829840D4
:100F77000CF582EE9BFEED9AFDEC99FC0FD5F0D6B1
:100F8700E4CEFBE4CDFAE4CCF9A88222B800C1B9DB
:100F97000059BA002DEC8BF084CFCECDFCE5F0CB19
:100FA700F97818EF2FFFEE33FEED33FDEC33FCEB52
:100FB70033FB10D703994004EB99FB0FD8E5E4F90D
:100FC700FA227818EF2FFFEE33FEED33FDEC33FCFA
:100FD700C933C910D7059BE99A4007EC9BFCE99AEE
:100FE700F90FD8E0E4C9FAE4CCFB2275F010EF2F33
:100FF700FFEE33FEED33FDCC33CCC833C810D70733
:101007009BEC9AE899400AED9BFDEC9AFCE899F86D
:0E1017000FD5F0DAE4CDFBE4CCFAE4C8F92200
:0E102500C3E49FFFE49EFEE49DFDE49CFC22DC
:10103300EB9FF5F0EA9E42F0E99D42F0E89C45F013
:01104300228A
:00000001FF
