:1006490057656C636F6D6520746F20757365212024
:100659000053656E64696E67206D657373616765C4
:1006690021002020202020202020202020202020A0
:10067900202000417474656E74696F6E207468651A
:100689002066697265210053656E64205375636342
:1006990065737366756C2100202020202020466137
:0906A900696C20202020202000B3
:040016008200000064
:1002CA00120CF0120CF7120006120BD1120BB81214
:1002DA000C17E47845F27F327E00120C4E7845E224
:1002EA0004F2E2C3940740EE7F80120B867BFF7A0A
:1002FA00067949120A187F327E00120C4E12054FF7
:10030A0012071A7F0A7E00120C4E7801E26401700D
:10031A000218E270E87F80120B867BFF7A06795A10
:10032A00120A187FC0120B867BFF7A06796B120AB3
:10033A00187BFF7A06797C12077EEF64014E7025DE
:10034A007F80120B867BFF7A067990120A187FC08B
:10035A00120B867BFF7A06796B120A187F327E00AF
:10036A00120C4E800E7FC0120B867BFF7A0679A193
:0B037A00120A18E47800F208F28082FA
:100AB800E4FDFCC3ED9FEC9E5015E4FBFA0BBB0074
:0F0AC800010AEB647B4A70F50DBD00010C80E460
:010AD70022FC
:100B8600A907C2A57F017E00120AB8D2A7AF018FBE
:090B9600807F01120AB8C2A722F7
:100B9F00A907D2A57F017E00120AB8AF018F80D2BC
:090BAF00A77F01120AB8C2A722B7
:100A18007846EBF208EAF208E9F27846E2FB08E2E7
:100A2800FA08E2F9120185FFD39400400E120B9FD9
:0C0A3800E22401F218E23400F280DF2218
:100BD100C2A7C2A67F38120B867F0C120B867F0636
:080BE100120B867F01020B8656
:1007D70041542B434D47533D223133333934333062
:1007E7003830323022004154004F4B0041542B43E4
:1007F70050494E3F0052454144590041542B435301
:1008070043533D2247534D220041542B434D474606
:0C0817003D310041542B435245473F0047
:08001A00811F008320FF07D7BE
:100C17005389F0438901758AE0758CB1C28DD2A9D9
:030C2700D28C224A
:100BB80053877F75985053890F438920758BFD752E
:090BC8008DFDC2ABD28ED2AC222D
:1006B200780E74FFF2087407F20874F0F2087403FB
:1006C200F208E4F2087432F27BFF7A0779ED12093C
:1006D200B07E00EF70057EFF7FFF22780E74FFF27E
:1006E200087407F20874FCF2087402F208E4F208D3
:1006F2007432F27BFF7A0779F31209B07E00EF7051
:10070200057EFF7FFE227F03120201EF70057EFF4E
:070712007FFD227E007F0144
:0107190022BD
:0A077E007846EBF208EAF208E9F20F
:10078800784A741AF2E408F27BFF7A087902120AAE
:10079800777F327E00120C4E7BFF7A087910120A9E
:1007A800777F507E00120C4E7820120A6F7F507EA1
:1007B80000120C4E7846E2FB08E2FA08E2F9120A47
:0E07C800977BFE7A00794A120A777E007F0145
:0107D6002200
:080BE900EBF208EAF208E9F260
:0E0BF1007F4690004FE4F0A3DFFCE4781FF293
:010BFF0022D3
:0808FB00E2FB08E2FA08E2F951
:100903007802EBF208EAF208E9F2C2AC7802E2F903
:1009130008E2FA08E2783CC9F208EAF208E9F27B55
:10092300017A00794F120385E94A4B6005D2AC7F07
:070933000122D2AC7F00227B
:040201007805EFF29B
:10020500E408F2120BF17806E260030202C77BFFF5
:100215007A08791A120A777F647E00120C4EE4FF81
:10022500744F2FF582E43400F583E0642B70747409
:10023500502FF582E43400F583E064437065745112
:100245002FF582E43400F583E06452705674522F22
:10025500F582E43400F583E06445704774532FF567
:1002650082E43400F583E06447703874542FF582D6
:10027500E43400F583E0643A702974562FF582E47E
:100285003400F583E0B4311B74582FF582E4340053
:10029500F583E0FE64316004EEB435077806740139
:1002A500F2FF220FEF644660030202257807E2049D
:1002B500F27805E2FF7807E2D39F500302020B7F35
:0402C50000227F0094
:0102C9002212
:100AF800E2FB0808E2F92401F218E2FA3400F212E3
:030B08000185FF65
:0C0B0B00C2AC8F993099FDC299D2AC2287
:100A9700784CEBF208EAF208E9F2784CE2FB08E25C
:100AA700FA08E2F91201856007784C120AF880EA21
:010AB700221C
:080A6F00E2FB08E2FA08E2F9DB
:100A7700784C120BE9784CE2FB08E2FA08E2F9122B
:100A870001856007784C120AF880EA7F0D020B0B8C
:100B36007808120BE97808E2FB08E2FA08E2F912F3
:0C0B4600018560077808120AF880EA2296
:0209B000780BC2
:1009B200120BE9E47814F27811E2FF7814E2C39F93
:1009C2005021780B120A6F7812E2FE08E2FF120C35
:1009D2004E780E1208FBEF60037F01227814E204C6
:0509E200F280D47F004B
:0109E70022ED
:100C4E007823EEF208EFF27824E2700218E270F7E1
:010C5E002273
:0208BB007815AE
:1008BD00120BE9E4781EF2781BE2FF781EE2C39F6B
:1008CD0050297815E2FB08E2FA08E2F9120B3678A6
:1008DD001CE2FE08E2FF120C4E78181208FBEF60C6
:0D08ED00037F0122781EE204F280CC7F0020
:0108FA0022DB
:03000B000209E8FF
:1009E800C0E0C0D075D000C000C28C758AE0758C9C
:1009F800B1D37824E2940018E29400400A08E22473
:100A0800FFF218E234FFF2D28CD000D0D0D0E0321E
:0300230002093A95
:10093A00C0E0C083C082C0D075D000C00030981C0F
:10094A00C298781FE2244FF582E43400F583E599D2
:10095A00F0E204F2E2C394464002E4F2309902C2A1
:0C096A0099D000D0D0D082D083D0E032F1
:0B0CD200EF1FAC0670011E4C70F622F4
:100B5200E4FBFAC2A47F647E00120CD2D2A40BBBC7
:090B620000010AEB64644A70EA28
:010B6B002267
:0D0CB9004C696768743A200020206C7800B8
:1004CA00AB07AA067C277D1012019EEF2430782AFA
:1004DA00F27C277D10AF03AE0212019EAA04AB057F
:1004EA007C037DE8AF03AE0212019EEF243078252B
:1004FA00F27C037DE8AF03AE0212019EAA04AB05AB
:10050A007C007D64AF03AE0212019EEF2430782690
:10051A00F27C007D64AF03AE0212019EAA04AB0511
:10052A007C007D0AAF03AE0212019EEF24307829C7
:10053A00F27C007D0AAF03AE0212019EAB05EB24EA
:05054A0030782BF222C5
:100AD800E4FDFCC3ED9FEC9E5015E4FBFA0BBB0054
:0F0AE800010AEB64794A70F50DBD00010C80E442
:010AF70022DC
:100C5F000000000000000000000000000000000085
:010C6F002262
:0E0C80007F307E02EF1FAC0670011E4C70F636
:010C8E002243
:0F0C8F00D2A2D2A3120C5FC2A2120C5FC2A32288
:0C0CC600C2A2D2A3120C5FD2A2020C5FEB
:0E0C9E00A20092A2D2A3120C5FC2A3020C5FAE
:0D0CAC00D2A3120C5FA2A2C2A3120C5F2201
:100B6C00E4FEEF25E0FF92A2D2A3120C5FC2A31207
:0A0B7C000C5F0EEEB408EB020CACA7
:100B1700E4FFD2A2FEEF25E0FFD2A3120C5FA2A250
:0E0B2700E4334FFFC2A3120C5F0EEEB408E7DA
:010B3500229D
:100C2A00AD07120C8F7F46120B6CAF05120B6C02CC
:020C3A000CC6E6
:100A4400120C8F7F47120B6CE4FD120B17742C2DC4
:100A5400F8EFF2EDB40304D2008002C200120C9E3F
:0B0A64000DEDB403E5120CC6020C807F
:050006007F01020C2A3D
:10054F007F01120C2A7F10120C2A7FB47E00120A30
:10055F00D8120A44782CE2FF7827E4F208EFF2E28F
:10056F00FE782DE27C002400FFEC3EFE7827F20897
:10057F00EFF2FDAC06EC1200CB7B9A7A9979997861
:10058F003F1200291201041204CA7F80120B867BCE
:10059F00FF7A0C79B9120A18782AE2FF120B9F78AA
:1005AF0025E2FF120B9F7826E2FF120B9F7829E2BC
:1005BF00FF120B9F782BE2FF120B9F7BFF7A0C79B8
:0405CF00C1020A1843
:100C7000523A002520202000543A00432020200032
:100C0000D2A1120CE8C2A17F19120C3CD2A1120C85
:070C1000E8120CE8020CE8F9
:10097600E4784CF230A1FD120CE8120CE8120CE8F7
:10098600E4784DF230A10204F220A1FD7838E22588
:10099600E0FFF2784DE24F7838F2784CE204F2E26A
:0909A600C3940840CF7838E2FF49
:0109AF002225
:1005D300120C00D2A120A16D30A1FD20A1FD1209B2
:1005E300767848EFF21209767849EFF212097678B5
:1005F30046EFF21209767847EFF2120976784AEF5E
:10060300F2C2A1E408F2120CE8784BE204F2E2C36E
:10061300940740F2D2A17849E2FF18E2FE2FFF7857
:1006230046E2FD2FFF08E2FC2FFF784AE2B50715EB
:100633007834EEF27849E27836F218EDF27837EC56
:05064300F2784AEFF21D
:01064800228F
:100C3C00AD071FED600BE4FEEEC3946450F20E8022
:010C4C00F7B0
:010C4D002284
:070CE800E4FF0FEFB401FB74
:010CEF0022E2
:10071A001205D37FC0120B867BFF7A0C7970120AFE
:10072A00187834E275F00A842430FF120B9F78346B
:10073A00E275F00A84E5F02430FF120B9F7BFF7A02
:10074A000C7973120A187BFF7A0C7978120A1878D6
:10075A0035E275F00A842430FF120B9F7835E27572
:10076A00F00A84E5F02430FF120B9F7BFF7A0C79A4
:04077A007B020A18DC
:0B0CDD00EF1FAC0670011E4C70F622E9
:070CF000D288D2A8D2AF2286
:070CF700D28AD2AAD2AF227B
:03000300020823CD
:10082300C0E0C0F0C083C082C0D075D000C000C09B
:1008330001C002C003C004C005C006C0077FE87E34
:1008430003120CDD20B20A120B527800E4F2080402
:10085300F2D007D006D005D004D003D002D001D007
:0C08630000D0D0D082D083D0F0D0E032A2
:0300130002086F71
:10086F00C0E0C0F0C083C082C0D075D000C000C04F
:10087F0001C002C003C004C005C006C0077FE87EE8
:10088F0003120CDD20B30A120B527800E4F20804B5
:10089F00F2D007D006D005D004D003D002D001D0BB
:0C08AF0000D0D0D082D083D0F0D0E03256
:1000260002017AEC5D046005E85904700302017070
:1000360012013B580460F6EC4860F2EC7004FDFED9
:10004600FF22C860DB2481C85009C39860025006AD
:100056000201779850CAF582E9294B4A7005AB82AE
:1000660002016675F0007C1A7880C3EF9BEE9AED6C
:1000760099400DC3EF9BFFEE9AFEED99FDE842F025
:10008600DC23ACF0D0E0FFD0E0FED0E0FDAB822078
:10009600E7101BEB60BAEC2CFCEF33FFEE33FEED02
:1000A60033FD020152E803F830E705C0F075F000B1
:1000B600EF2FFFEE33FEED33FD40B830E7C280AAE6
:1000C60075F020800E75F010800575F0087D007EB5
:1000D600007F003392D530D5031201F3EC33401084
:1000E600EF33FFEE33FEED33FDEC33FCD5F0ED22BE
:0E00F600E5F0247EA2D513CC92E7CDCEFF22FA
:10010400EDD2E7CD33EC3392D524814006E4FFFEF3
:10011400FDFC22FCE4CFCECDCC24E0501174FF8052
:10012400EDC3CC13CCCD13CDCE13CECF13CF0470EF
:07013400F030D5DE0201F3FB
:10013B00E9D2E7C933E833F892D5EDD2E7CD33EC0A
:07014B0033FC5002B2D52283
:10015200EC30E7100FBF000C0EBE00080DBD00040E
:100162000BEB6014A2D5EB13FCED92E7FD2274FFBA
:10017200FCFDFEFF22E480F8A2D574FF13FC7D8013
:03018200E480EF27
:0300000002043EB9
:0C043E00787FE4F6D8FD7581200204856B
:10018500BB010689828A83E0225002E722BBFE0278
:09019500E32289828A83E49322AB
:10019E00BC000BBE0029EF8DF084FFADF022E4CC45
:1001AE00F875F008EF2FFFEE33FEEC33FCEE9DEC0E
:1001BE00984005FCEE9DFE0FD5F0E9E4CEFD22ED54
:1001CE00F8F5F0EE8420D21CFEADF075F008EF2F9E
:1001DE00FFED33FD4007985006D5F0F222C398FD8F
:0501EE000FD5F0EA222C
:0E01F300C3E49FFFE49EFEE49DFDE49CFC221D
:100385007839EBF208EAF208E9F208E2FB08E2FA4A
:1003950008E2F9120185700302042C7839E2FB08A2
:1003A500E2FA08E2F9120185700302043708E2F95E
:1003B50008E2FA08E208C9F208EAF208E9F278392F
:1003C500E2F908E2FA08E27842C9F208EAF208E935
:1003D500F2783FE2FB08E2FA08E2F9120185FF60D4
:1003E5002708E2FB08E2FA08E2F91201856F7018A6
:1003F5007841E22401F218E23400F27844E2240163
:10040500F218E23400F280C9783FE2FB08E2FA080C
:10041500E2F91201857002800E783BE22401F218A0
:10042500E23400F20203A07839E2FB08E2FA08E2BE
:09043500F9227B007A0079002213
:10044A000202CAE493A3F8E493A34003F68001F2FC
:10045A0008DFF48029E493A3F85407240CC8C333B3
:10046A00C4540F4420C8834004F456800146F6DF82
:10047A00E4800B0102040810204080900016E47EFC
:10048A00019360BCA3FF543F30E509541FFEE49377
:10049A00A360010ECF54C025E060A840B8E493A33E
:1004AA00FAE493A3F8E493A3C8C582C8CAC583CA69
:1004BA00F0A3C8C582C8CAC583CADFE9DEE780BE21
:0100220000DD
:00000001FF
