:100B0A0057656C636F6D6520746F2075736521205E
:100B1A000044657369676E6564206279204C697563
:100B2A0053005765696768743D004B67004D005272
:050B3A003A00543A00EE
:100BA400011900042300000000041A0000000004DE
:100BB4001F000000000408000000010C0D000000EC
:0F0BC400000000000000000000010C00011E00F6
:10000300120C3E7F80120C9C7BFF7A0B790A120B39
:10001300D47FC0120C9C7BFF7A0B791B120BD47F0D
:1000230003120B3F120CED120CED7FD07E07120B67
:10003300FE120CED120CED7F01120C9C7F007E2052
:10004300120C56750D008F0E7F017E20120C567513
:100053000F008F107F027E20120C567511008F1235
:100063007F037E20120C567513008F147F047E20AD
:10007300120C567515008F167F057E20120C5675CF
:1000830017008F18AE0FAF10E4FCFD7B107A27F931
:10009300F812077EC004C005C006C007AE0DAF0E40
:1000A300E4FCFD7BA07A867901F812077ED003D0A9
:1000B30002D001D000EF2BFFEE3AFEED39FDEC3814
:1000C300FCC004C005C006C007AE11AF12E4FCFDBE
:1000D3007BE87A03F9F812077ED003D002D001D06F
:1000E30000EF2BFFEE3AFEED39FDEC38FCC004C007
:1000F30005C006C007AE13AF14E4FCFD7B64FAF938
:10010300F812077ED003D002D001D000EF2BFFEE10
:100113003AFEED39FDEC38FCC004C005C006C0074B
:10012300AE15AF16E4FCFD7B0AFAF9F812077ED090
:1001330003D002D001D000EF2BFBEE3AFAED39F9F0
:10014300EC38F8E4FCFDEB2518F50BEA3517F50A56
:10015300ED39F509EC38F5081209B212095E7F8012
:10016300120C9C7BFF7A0B792C120BD47BA07A8622
:1001730079017800AF22AE21AD20AC1F120A4AEFFD
:100183002430FF120CB17BA07A8679017800AF226C
:10019300AE21AD20AC1F120A4AAC00AD01AE02AFD6
:1001A30003E47B107A27F9F8120A4AEF2430FF128E
:1001B3000CB1E47B107A27F9F8AF22AE21AD20AC65
:1001C3001F120A4AAC00AD01AE02AF03E47BE87A2A
:1001D30003F9F8120A4AEF2430FF120CB17F2E12F2
:1001E3000CB1E47BE87A03F9F8AF22AE21AD20AC81
:1001F3001F120A4AAC00AD01AE02AF03E47B64FAFE
:10020300F9F8120A4AEF2430FF120CB1E47B64FAC6
:10021300F9F8AF22AE21AD20AC1F120A4AAC00ADF3
:1002230001AE02AF03E47B0AFAF9F8120A4AEF249B
:1002330030FF120CB1E47B0AFAF9F8AF22AE21AD1C
:1002430020AC1F120A4AEB2430FF120CB17BFF7A59
:100253000B7934120BD4120A8E8F19E519640160DD
:1002630003020384050CE50C64076003020384F5B1
:100273000CFF7E20120CC6AD0E7F007E20120C8573
:10028300AD107F017E20120C85AD127F027E2012FD
:100293000C85AD147F037E20120C85AD167F047E82
:1002A30020120C85AD187F057E20120C85AE0FAF92
:1002B30010E4FCFD7B107A27F9F812077EC004C016
:1002C30005C006C007AE0DAF0EE4FCFD7BA07A8629
:1002D3007901F812077ED003D002D001D000EF2BB2
:1002E300FFEE3AFEED39FDEC38FCC004C005C00654
:1002F300C007AE11AF12E4FCFD7BE87A03F9F812F4
:10030300077ED003D002D001D000EF2BFFEE3AFEE0
:10031300ED39FDEC38FCC004C005C006C007AE13C0
:10032300AF14E4FCFD7B64FAF9F812077ED003D026
:1003330002D001D000EF2BFFEE3AFEED39FDEC3891
:10034300FCC004C005C006C007AE15AF16E4FCFD33
:100353007B0AFAF9F812077ED003D002D001D0004D
:10036300EF2BFBEE3AFAED39F9EC38F8E4FCFDEB50
:100373002518F50BEA3517F50AED39F509EC38F5CB
:1003830008E5196402702EE50C602A25E0240BF8B9
:100393000806E618700106E50C25E0240BF8E6FED6
:1003A30008E6D39409EE9400400BE50C25E0240BFA
:1003B300F8E4F608F6E5196403702CE50C602825CB
:1003C300E0240BF808E61618700116E50C25E02466
:1003D3000BF8E6FE08C3EE9400500CE50C25E02470
:1003E3000BF87600087609E519B40413AF22AE21A1
:1003F300AD20AC1FEC4D4E4F60057F01120B3FE566
:100403000C600A051EE51EB40603E4F51EE50CB4F4
:10041300070040030205D5900421F828287302043D
:100423003602044E0204790204AC0204EC020534E1
:100433000205847FC0120C9C7BFF7A0B7937120B69
:10044300D4E50E2430FF120CB180217FC0120C9C26
:100453007BFF7A0B7937120BD4E51EC39403500745
:10046300E50E2430FF80027F20120CB1E51024300A
:10047300FF120CB180297FC0120C9C7BFF7A0B7991
:1004830037120BD4E50E2430FF120CB1E51EC394D2
:10049300035007E5102430FF80027F20120CB1E5E2
:1004A300122430FF120CB180317FC0120C9C7BFFF1
:1004B3007A0B7937120BD4E50E2430FF120CB1E519
:1004C300102430FF120CB1E51EC394035007E5124C
:1004D3002430FF80027F20120CB17F2E120CB1E575
:1004E300142430FF120CB1803E7FC0120C9C7BFFA2
:1004F3007A0B7937120BD4E50E2430FF120CB1E5D9
:10050300102430FF120CB1E5122430FF120CB17F1E
:100513002E120CB1E51EC394035007E5142430FFDB
:1005230080027F20120CB1E5162430FF120CB1803B
:10053300467FC0120C9C7BFF7A0B7937120BD4E5F4
:100543000E2430FF120CB1E5102430FF120CB1E57C
:10055300122430FF120CB17F2E120CB1E51424309B
:10056300FF120CB1E51EC394035007E5162430FFB8
:1005730080027F20120CB1E5182430FF120CB180E9
:100583004E7FC0120C9C7BFF7A0B7937120BD4E59C
:100593000E2430FF120CB1E5102430FF120CB1E52C
:1005A300122430FF120CB17F2E120CB1E51424304B
:1005B300FF120CB1E5162430FF120CB1E51EC394F3
:1005C300035007E5182430FF80027F20120CB1127C
:1005D3000A04AF0BAE0AAD09AC08AB22AA21A920CD
:1005E300A81FC31207DB50137F407E0D7D037C00E1
:1005F300A81FC31207DB500302015B7F02120B3FEC
:0306030002015B96
:1009B200120ACD8F228E218D208C1FC3E522951D18
:1009C200F522E521951CF521E520951BF520E51F73
:1009D200951AF51FAF22AE21AD20FC33401AEC125E
:1009E20006A6E4FBFA79C478411206091206E48FDE
:1009F200228E218D208C1F22E4F522F521F520F58F
:020A02001F22B1
:0C0CED00120ACD8F1D8E1C8D1B8C1A224C
:040BFA007F0A7E00F0
:100BFE00E4FDFCC3ED9FEC9E5015E4FBFA0BBB002D
:0F0C0E00010AEB647B4A70F50DBD00010C80E418
:010C1D0022B4
:100A8E0020A30C120BFA20A30630A3FD7F01222017
:100A9E00A20C120BFA20A20630A2FD7F022220A188
:100AAE000C120BFA20A10630A1FD7F032220A00C10
:0F0ABE00120BFA20A00630A0FD7F04227F002239
:100B3F00A907E924FE600B14600C2402700AC2900E
:100B4F008006C2918002C2927FE87E03120BFEE9FB
:100B5F0024FE600A14600A24027008D29022D291F7
:040B6F0022D29222DA
:100A04007BFF7A0B7939120BD4E50075F00A842444
:100A140030FF120CB1E50075F00A84E5F02430FFD4
:100A2400120CB17BFF7A0B793C120BD4E50075F004
:100A34000A842430FF120CB1E50075F00A84E5F055
:060A44002430FF020CB19A
:100C6E00D2A4120D19C2A47F19120CDBD2A4120D3C
:070C7E0019120D19020D19F6
:100B7300E4F52D30A4FD120D19120D19120D19E40F
:100B8300F52E30A403752E0120A4FDE50025E0F524
:100B930000E52E4200052DE52DC3940840D5AF0096
:010BA300222F
:10095E00120C6ED2A420A44B30A4FD20A4FD120BC9
:10096E00738F29120B738F2A120B738F27120B732F
:10097E008F28120B738F2BC2A4E4F52C120D1905C0
:10098E002CE52CC3940740F4D2A4E529252A25276B
:10099E002528B52B0E852900852A00852700852858
:0309AE0000F52B26
:0109B1002223
:100CDB00AD071FED600BE4FEEEC3946450F20E8083
:010CEB00F711
:010CEC0022E5
:060D1900E4FF0FBF01FC26
:010D1F0022B1
:100C1E00E4FDFCC3ED9FEC9E5015E4FBFA0BBB000C
:0F0C2E00010AEB647B4A70F50DBD00010C80E4F8
:010C3D002294
:100C9C00A907C2A57F017E00120C1ED2A789801263
:050CAC000C1EC2A7228E
:100CB100A907D2A57F017E00120C1E8980D2A7123E
:050CC1000C1EC2A72279
:100BD4008B278A288929AB27AA28A929120765FF08
:100BE400D394004010120CB174012529F529E43581
:060BF40028F52880E12233
:100C3E00C2A7C2A67F38120C9C7F0C120C9C7F069A
:080C4E00120C9C7F01020C9CBA
:030D2000000022AE
:100ACD00D2B3120D20C2B27F007E007D007C0020CB
:100ADD00B3FDE4FBD2B278011207F1C2B230B30D0F
:100AED00EF2401FFE43EFEE43DFDE43CFC0BBB18AE
:0C0AFD00E3D2B2ED6480FD120D20C2B205
:010B090022C9
:0C0CF900C2AF53E71843E70143E7802235
:090D100053E77FE4F5E6D2AF22BF
:0B0D0500120CF975E64675E6B90022F5
:100C5600AD07AC068CE3EDF5E453E5F843E5011288
:080C66000D05120D10AFE22292
:100CC600EE54FEFEF5E3E4F5E453E5F843E50312DE
:050CD6000D05020D10E8
:100C8500AB07AA068AE3EBF5E453E5F843E5028DE5
:070C9500E2120D05020D1033
:1006060002075AEC5D046005E859047003020750BE
:1006160012071B580460F6EC4860F2EC7004FDFE0D
:10062600FF22C860DB2481C85009C39860025006C7
:100636000207579850CAF582E9294B4A7005AB82E2
:1006460002074675F0007C1A7880C3EF9BEE9AEDA0
:1006560099400DC3EF9BFFEE9AFEED99FDE842F03F
:10066600DC23ACF0D0E0FFD0E0FED0E0FDAB822092
:10067600E7101BEB60BAEC2CFCEF33FFEE33FEED1C
:1006860033FD020732E803F830E705C0F075F000E5
:10069600EF2FFFEE33FEED33FD40B830E7C280AA00
:1006A60075F020800E75F010800575F0087D007ECF
:1006B600007F003392D530D5031207CDEC334010BE
:1006C600EF33FFEE33FEED33FDEC33FCD5F0ED22D8
:0E06D600E5F0247EA2D513CC92E7CDCEFF2214
:1006E400EDD2E7CD33EC3392D524814006E4FFFE0E
:1006F400FDFC22FCE4CFCECDCC24E0501174FF806D
:10070400EDC3CC13CCCD13CDCE13CECF13CF047009
:07071400F030D5DE0207CD35
:10071B00E9D2E7C933E833F892D5EDD2E7CD33EC24
:07072B0033FC5002B2D5229D
:10073200EC30E7100FBF000C0EBE00080DBD000428
:100742000BEB6014A2D5EB13FCED92E7FD2274FFD4
:10075200FCFDFEFF22E480F8A2D574FF13FC7D802D
:03076200E480EF41
:030000000208D221
:0C08D200787FE4F6D8FD75812E0209192C
:10076500BB010689828A83E0225002E722BBFE0292
:09077500E32289828A83E49322C5
:10077E00E88FF0A4CC8BF0A42CFCE98EF0A42CFC1A
:10078E008AF0EDA42CFCEA8EF0A4CDA8F08BF0A498
:10079E002DCC3825F0FDE98FF0A42CCD35F0FCEBF7
:1007AE008EF0A4FEA9F0EB8FF0A4CFC5F02ECD39BC
:0F07BE00FEE43CFCEAA42DCE35F0FDE43CFC2229
:100A4A00C2D5E830E70FB2D5E4C39BFBE49AFAE4D7
:100A5A0099F9E498F8EC30E717B2D5120A8012082F
:100A6A0040E4C39BFBE49AFAE499F9E498F880031A
:100A7A0012084030D50DE4C39FFFE49EFEE49DFDBD
:040A8A00E49CFC22CA
:0E07CD00C3E49FFFE49EFEE49DFDE49CFC223D
:1007DB00EB9FF5F0EA9E42F0E99D42F0EC6480C895
:0607EB0064809845F02235
:1007F100E8600FEFC333FFEE33FEED33FDEC33FC66
:03080100D8F12209
:1008DE00020003E493A3F8E493A34003F68001F22D
:1008EE0008DFF48029E493A3F85407240CC8C3331B
:1008FE00C4540F4420C8834004F456800146F6DFEA
:10090E00E4800B0102040810204080900BA4E47ECA
:10091E00019360BCA3FF543F30E509541FFEE493DE
:10092E00A360010ECF54C025E060A840B8E493A3A5
:10093E00FAE493A3F8E493A3C8C582C8CAC583CAD0
:10094E00F0A3C8C582C8CAC583CADFE9DEE780BE88
:010BD3000021
:1008040075F008758200EF2FFFEE33FECD33CDCCAB
:1008140033CCC58233C5829BED9AEC99E58298402E
:100824000CF582EE9BFEED9AFDEC99FC0FD5F0D60B
:10083400E4CEFBE4CDFAE4CCF9A88222B800C1B935
:100844000059BA002DEC8BF084CFCECDFCE5F0CB73
:10085400F97818EF2FFFEE33FEED33FDEC33FCEBAC
:1008640033FB10D703994004EB99FB0FD8E5E4F967
:10087400FA227818EF2FFFEE33FEED33FDEC33FC54
:10088400C933C910D7059BE99A4007EC9BFCE99A48
:10089400F90FD8E0E4C9FAE4CCFB2275F010EF2F8D
:1008A400FFEE33FEED33FDCC33CCC833C810D7078D
:1008B4009BEC9AE899400AED9BFDEC9AFCE899F8C8
:0E08C4000FD5F0DAE4CDFBE4CCFAE4C8F9225B
:00000001FF
