:0F005E001200481200037FE87E0312003280F484
:10000300E4F50920A11F7F64FE12003220A11FC264
:10001300A0D2A2E4F5097F011200790509E509C31D
:0E002300940A40F222D2A0C2A2E4FF12007999
:0100310022AC
:10003200EF1FAA0670011E4A600BE4FDEDC3947D1A
:0500420050EE0D80F7F7
:010047002296
:10004800758920758DFD758BFDE4F587D28E7598C1
:0600580050C298C299227B
:080079008F993099FDC2992214
:0300000002006D8E
:0C006D00787FE4F6D8FD75810902005E82
:00000001FF
