:1002540057656C636F6D6520746F2075736521211C
:010264000099
:1001540012017F7BFF7A027954E4F52FF530FDFC20
:1001640012010C12020312027112006E1200BD7F02
:0B017400647E001201C41201A280EEA4
:1001C400E4FDFCC3ED9FEC9E5015E4FBFA0BBB0071
:0F01D400010AEB64794A70F50DBD00010C80E45F
:0101E30022F9
:10017F007D017F381202197D017F081202197D015E
:10018F007F011202197D017F061202197D017F0C7A
:03019F0002021940
:10022E007580FFC2A5D2A600D2A70000E58020E708
:04023E00FBC2A72236
:10021900ED600312022EC2A5C2A6008F8000D2A7EC
:050229000000C2A72245
:1002420012022ED2A5C2A6008F8000D2A70000C241
:02025200A722E1
:1001E400AE07AC0353050153060FED60034306400D
:0F01F400430680AF06E4FD120219AF0402024277
:0A010C008B2A8A2B892C8C2D8D2E56
:10011600E4F531533001F52F532E0FF52DC3E52E9F
:100126009410E52D648094805023AF2EAD30AB2A19
:10013600AA2BA92C853182758300120003FB1201BC
:0D014600E40531052EE52E70D4052D80D086
:010153002289
:05027100C291C29222BF
:10020300758920758DFD758BFDE4F587D28E759804
:0602130050C298C29922BE
:10006E00752A00752B00752C08E4F52DF52EFE7FF4
:10007E0011FDFB7A007908120042C3E52E9410E5BB
:10008E002D648094805027C2983098FDAB2AAA2BFD
:10009E00A92CE599120030052EE52E7002052DC211
:0E00AE00987401252CF52CE4352BF52B80CC15
:0100BC002221
:1000BD00752A00752B00752C19E4F52DF52EFE7F94
:1000CD0011FDFB7A007919120042C3E52E9410E55B
:1000DD002D648094805027C2983098FDAB2AAA2BAE
:1000ED00A92CE599120030052EE52E7002052DC2C2
:0E00FD00987401252CF52CE4352BF52B80CCC6
:01010B0022D1
:1001A2007B007A007908E4F52FF530FDFC12010C92
:1001B2007B007A007919752F00753001E4FDFC028D
:0201C200010C2E
:0300000002026594
:0C026500787FE4F6D8FD75813102015469
:10000300BB010CE58229F582E5833AF583E02250B2
:1000130006E92582F8E622BBFE06E92582F8E222FC
:0D002300E58229F582E5833AF583E4932216
:10003000BB010689828A83F0225002F722BBFE01AF
:02004000F322A9
:10004200EF4E6012EF60010EEDBB010B89828A83D5
:10005200F0A3DFFCDEFA2289F05007F709DFFCA9E2
:0C006200F022BBFEFCF309DFFCA9F02239
:00000001FF
