:03000000020026D5
:0C002600787FE4F6D8FD75813B02006D88
:10000E00417474656E74696F6E20746865206669DC
:04001E0072652100E6
:10022E001203741203402090207F0A7E001203A74F
:10023E00209016C291D292C2807BFF7A00790E1264
:10024E0001347FFA7E001203A7D291C292D280802F
:01025E00D5CA
:10025F0041542B434D47533D2231383834343039D4
:10026F0030353534220041542B435343533D2247FD
:0E027F00534D220041542B434D47463D310064
:0803B2000130000331FF025F7E
:100374005389F0438901758AE0758CB1C28DD2A985
:03038400D28C22F6
:1003400053877F75985053890F438920758BFD75AE
:0B0350008DFDC2ABD28ED2ACD2AF222A
:060134008B288A29892AAC
:10013A00752B1AE4F52C7BFF7A0279751202B37FCC
:10014A00327E001203A77BFF7A0279831202B37F01
:10015A00507E001203A7AB31AA32A9331202B37F31
:10016A00507E001203A7AB28AA29A92A1203217BD1
:0C017A00007A00792B1202B37E007F0196
:010186002256
:0D0399007F46900000E4F0A3DFFCE4F530A7
:0103A6002234
:10028D008B368A378938C2AC8B0B8A0C890D7B0172
:10029D007A0079001200B2E94A4B6005D2AC7F01B9
:0602AD0022D2AC7F00220A
:0603870014F912035BFFF4
:0C038D00C2AC8F993099FDC299D2AC220D
:100321008B2D8A2E892FAB2DAA2EA92F12035B604C
:0F0331000D052FE52F7002052E12038780E8229D
:1002B3008B2D8A2E892F120399AB2DAA2EA92F12CB
:1002C300035B600D052FE52F7002052E1203878057
:0602D300E87F0D02038D1F
:1002FF008B398A3A893B120399AB39AA3AA93B1237
:10030F00035B600D053BE53B7002053A12038780E6
:02031F00E822D2
:060187008B148A15891695
:10018D00120399E4F51DE51DC3951A5023AB14AA6E
:10019D0015A9161202B3AF1CAE1B1203A7AB17AAFB
:1001AD0018A91912028DEF60037F0122051D80D65B
:0201BD007F00C1
:0101BF00221D
:0B03A7008E348F35E535453470FA22A6
:0601C0008B1E8A1F89203E
:1001C600120399E4F527E527C395245023AB1EAA0D
:1001D6001FA9201202FFAF26AE251203A7AB21AA44
:1001E60022A92312028DEF60037F0122052780D604
:0201F6007F0088
:0101F80022E4
:03000B000202D915
:1002D900C0E0C0D0C28C758AE0758CB1D3E5359485
:1002E90000E53494004008E535153570021534D21F
:0602F9008CD0D0D0E032F1
:030023000201F9DE
:1001F900C0E0C083C082C0D030981CC2987400256A
:1002090030F582E43400F583E599F00530E530C333
:1002190094464003753000309902C299D0D0D082FB
:05022900D083D0E0329B
:1000320002022EE493A3F8E493A34003F68001F2B4
:1000420008DFF48029E493A3F85407240CC8C333CF
:10005200C4540F4420C8834004F456800146F6DF9E
:10006200E4800B01020408102040809003B2E47E79
:10007200019360BCA3FF543F30E509541FFEE49393
:10008200A360010ECF54C025E060A840B8E493A35A
:10009200FAE493A3F8E493A3C8C582C8CAC583CA85
:1000A200F0A3C8C582C8CAC583CADFE9DEE780BE3D
:0103BA000042
:10035B00BB010689828A83E0225002E722BBFE02A0
:09036B00E32289828A83E49322D3
:1000B2008B088A09890AAB0BAA0CA90D12035B6093
:1000C20063AB08AA09A90A12035B605F850B0E8560
:1000D2000C0F850D108B118A128913AB0EAA0FA972
:1000E2001012035BFF6023AB11AA12A91312035B68
:1000F2006F7017042510F510E4350FF50F74012504
:1001020013F513E43512F51280D1AB0EAA0FA91024
:1001120012035B7002800D7401250AF50AE43509A9
:10012200F509809DAB08AA09A90A227B007A007909
:020132000022A9
:00000001FF
