:03000000020CEB04
:0C0CEB00787FE4F6D8FD758172020D32AE
:100EA700763A25352E31665620613A25332E31663E
:100EB700412000503A25352E31665720206E6F3C71
:050EC700363030200070
:0D0F630002260000043200000000012800FA
:100AC000120003120F43120F53C290C2937F781289
:100AD000000E7F1412000ED293D2909000081205DF
:100AE000EA000000009000001205EA00000000E5A6
:100AF0002DB401FBE4F52DFF120E1CAC07E412032C
:100B0000477BE27A7A795E784112011EE4FBFA793A
:100B10007F784312022790000C1205DE7F0A7ED7F1
:100B20007DA37C3D90000CE0F8A3E0F9A3E0FAA3DC
:100B3000E0FB1202C4500A90000C1205EA0000000B
:100B4000007F0212000E7F01120E1CAC07E412039C
:100B5000477BCD7AA479CE784412011EE4FBFA7962
:100B60007F78431202279000041205DE7F021200F4
:100B70000E900008E0FCA3E0FDA3E0FEA3E0FFA3CD
:100B8000E0F8A3E0F9A3E0FAA3E0FB12002D900047
:100B9000081205DE900000E0FCA3E0FDA3E0FEA348
:100BA000E0FFA3E0F8A3E0F9A3E0FAA3E0FB120062
:100BB0002D9000001205DE0528E528C3940550039A
:100BC000020AEFE4F528FBFA79A07840900008E0EB
:100BD000FCA3E0FDA3E0FEA3E0FF1202278F258E19
:100BE000248D238C227F0A7ED77DA37C3DAB25AA52
:100BF00024A923A8221202C45009E4F525F524F5FE
:100C000023F5229000081205EA00000000E4FBFA38
:100C100079A07840900000E0FCA3E0FDA3E0FEA3F3
:100C2000E0FF1202278F318E308D2F8C2EE4FFFED5
:100C30007D707C41AB31AA30A92FA82E1202C4507E
:100C400009E4F531F530F52FF52E9000001205EA94
:100C500000000000AF31AE30AD2FAC2EAB25AA2482
:100C6000A923A82212011E8F2C8E2B8D2A8C297568
:100C700059FF755A0E755BA785315F85305E852FEC
:100C80005D852E5C852563852462852361852260D0
:100C90007B007A0079361206AD7B007A0079367DCA
:100CA00010120E517559FF755A0E755BBA852C5F7F
:100CB000852B5E852A5D85295C7B007A007936125A
:100CC00006AD7B007A0079367D10120E51E4FFFEEE
:100CD0007D167C44AB2CAA2BA92AA8291202C45049
:0B0CE00003020AEFC293C290020AEF69
:03000800DFFE22F6
:10000E00AE07AF061EEF600C7FF51200087FF512EB
:05001E00000880EE2245
:100F0B00D2A000D2A10000000000C2A0000000008F
:060F1B0000C2A10000224B
:100F2100C2A000D2A10000000000D2A00000000079
:010F3100229D
:100DE000E4FEEFA806088002C333D8FC30E704D243
:100DF000A08002C2A000D2A10000000000C2A10E8B
:100E0000BE08DF0000D2A00000D2A100000030A088
:0B0E100004C2098002D209C2A1000048
:010E1B0022B4
:100ECC00E4FFD2A0FE00C2A10000000000D2A100ED
:100EDC0000EF25E0FF30A0010F00000EBE08E6C2B7
:030EEC00A1000062
:010EEF0022E0
:100F3200D2A0000000D2A10000000000C2A1000067
:010F4200228C
:020E1C00AD0720
:100E1E00120F0B7F90120DE02009037F0022ED448C
:100E2E0040FF120DE02009037F0022120F0B7F916D
:100E3E00120DE02009037F0022120ECC120F321287
:020E4E000F2172
:010E5000227F
:05000300D287D2862225
:100F4300438901758CB1758AE0D2AFD2A9D28C22C4
:03000B00020D776C
:100D7700C0E0C0F0C083C082C0D075D000C000C042
:100D870001C002C003C004C005C006C007758CB10E
:100D9700758AE0E5352401F535E43534F534E43575
:100DA70033F533E43532F532E5355401FFE4FEFD22
:100DB700FCFBFAF9F8C31205CD7003752D01D007B6
:100DC700D006D005D004D003D002D001D000D0D0B7
:090DD700D082D083D0F0D0E032CC
:100F5300759850438920758DFDD28ED2AFD2AC22C5
:100EF000E4F55B8F99209910E55BC3946450090574
:0A0F00005B7F0A12000880EDC29921
:010F0A0022C4
:080E51008B568A5789588D5910
:100E5900E4F55AE55AC39559501CAB56AA57A958F7
:100E6900120567FF120EF074012558F558E435573D
:060E7900F557055A80DD6B
:010E7F002250
:03002300020F7158
:0D0F7100309805C298859972309902C29996
:010F7E003240
:100026000203B0E86480F8E933E83360110460F055
:10003600ED33EC337009E8FCE9FDEAFEEBFF220440
:1000460060DED3EB9FEA9EE99DE8C2E78CF0C2F73B
:1000560095F0400CE8CCF8E9CDF9EACEFAEBCFFB07
:1000660012037B85D0F05804700320D5B3E80470E2
:10007600075002B2D50203BA92D5EC0460F7E4CC7D
:10008600C0E0C398F8603B94186008400DD0E0FBD0
:10009600020392E4FBFAC9FC8028E830E406E4C9CE
:1000A600FBE4CAFCE830E305E4C9CACBFCE8540724
:1000B6006010F8C3E913F9EA13FAEB13FBEC13FC2F
:1000C600D8F130F52FC3E49CFCEF9BFFEE9AFEEDD2
:1000D60099FDD0E0FBEF4E4D4C701222DB0302037C
:1000E600B7EC2CFCEF33FFEE33FEED33FDED30E7DE
:1000F600EB020392EF2BFFEE3AFEED39FDD0E0FB6B
:1001060050130BBB00030203BAED13FDEE13FEEF13
:0801160013FFEC13FC0203923D
:10011E00EC4D6011E8497017ED33EC3304600DE4DB
:10012E00FCFFFEFD22E933E8330470F80203B0123F
:10013E00037B58046009E4CC248150062850090240
:10014E0003BA2840030203B7C0E0EB4A7044B980FB
:10015E0006D0E0FB0203A6EF4E701CBD8008EBFF3D
:10016E00EAFEE9FD80EBE98DF0A4FEE5F002020760
:10017E00E9CDF9EAFEEBFFEF89F0A4FCE5F0CE89BC
:10018E00F0A42EFFE435F0CD89F0A42DFEE435F079
:10019E008067EF4E7005BD80D780C3EF8BF0A4ACA7
:1001AE00F0EE8BF0A42CFCE435F0F8EF8AF0A42CE2
:1001BE00E5F038FCE433CB8DF0A42CFCE5F03BF8F5
:1001CE00EE8AF0A42CFCE5F038F8E433CF89F0A4E5
:1001DE002CFCE5F038CF3400CE89F0A42FFFE5F0EB
:1001EE003EFEE433C98DF0A42EFEE5F039CD8AF043
:1001FE00A42FFFE5F03EFEE43DFD33D0E0FB5007BB
:10020E000BBB000F0203BAEC2CFCEF33FFEE33FEF8
:06021E00ED33FD02039226
:100224000203BAEC5D046005E8590470030203B0EC
:1002340012037B580460F6EC4860F2EC7004FDFE97
:10024400FF22C860DB2481C85009C39860025006AD
:100254000203B79850CAF582E9294B4A7005AB826C
:100264000203A675F0007C1A7880C3EF9BEE9AED2A
:1002740099400DC3EF9BFFEE9AFEED99FDE842F025
:10028400DC23ACF0D0E0FFD0E0FED0E0FDAB822078
:10029400E7101BEB60BAEC2CFCEF33FFEE33FEED02
:1002A40033FD020392E803F830E705C0F075F0006F
:1002B400EF2FFFEE33FEED33FD40B830E7C280AAE6
:1002C40074F8CC6480CCC86480C8F58204604FC3E1
:1002D400EB9FF5F0EA9E42F0E99D42F0E89C45F080
:1002E400603C501DE5825FFFE582D313CB5BCBF40A
:1002F4002B5582FB50280ABA002409B90020088033
:100304001DE5825BFBE582D313CF5FCFF4C3132FCC
:100314005582FF50090EBE00050DBD00010CC3EB54
:100324009FF5F0EA9E42F0E99D42F0E89C45F060BA
:0903340007CC4820E701B3EC22DC
:10033D0075F020800E75F010800575F0087D007E3B
:10034D00007F003392D530D5031205BFEC3340103A
:10035D00EF33FFEE33FEED33FDEC33FCD5F0ED2244
:0E036D00E5F0247EA2D513CC92E7CDCEFF2280
:10065100E56D2459F8E6056D227856300702785980
:10066100E475F00112061B0205672000EB7F2ED214
:10067100008018EF540F2490D43440D4FF30040B81
:10068100EF24BFB41A0050032461FFE56E60021528
:100691006E0571E5717002057030070D7856E475CD
:1006A100F00112061BEF0205AD020E807403D207A2
:1006B1008003E4C207F56D8B568A578958E4F56EBD
:1006C100F570F571E56E60077F2012068C80F57577
:1006D1006FFFC201C200C202C203C205C206C20844
:1006E10012065AFF700D3007057F0012069DAF718B
:1006F100AE7022B4255FC2D5C20412065AFF24D0BF
:10070100B40A00501A75F00A786E30D50508B6FFA4
:100711000106C6A426F620D5047002D20380D9248E
:10072100CFB41A00EF5004C2E5D20402098AD20103
:1007310080C6D20080C0D20280BCD2D580BAD20598
:1007410080B47F2012068C2002077401B56E004030
:10075100F1120651FF12068C0206C5D208D206809C
:1007610095120651FB120651FA120651F94A4B70C5
:100771000679817A0A7BFF20022EE56E602A7E00CF
:100781008E8275830012058060060EEE656F70F033
:10079100C2D5EBC0E0EAC0E0E9C0E0EE1209EAD060
:1007A100E0F9D0E0FAD0E0FB120567FF60AAEBC0E8
:1007B100E0EAC0E0E9C0E012068CD0E02401F9D003
:1007C100E03400FAD0E0FBE56F0460DCD56FD9803E
:1007D10087D20280A21209CD60F7E56F7001041281
:1007E10003C5A96F600DE56F600914F56F120A74F6
:1007F100EF60F3EA30E702F404C3995077EAF42595
:100801006F0430E701E404F56F800D1209CD60C17A
:10081100EA056F256F1203C5EA786CF630E701E44B
:10082100256F04D56F04200501141209EAE4C0E024
:10083100120A74786CE6601320E70714F612067446
:10084100802204F6D0E014C0E07F00120674E56F48
:10085100600712066B156F800B30050312066BD013
:10086100E00206C5D0E00480C51209CD60A0E56FA5
:10087100041203C5786CEAF6E56F200502600104F5
:0508810024041209EA45
:1008860074FF04C0E0120A74120674E56F200502B4
:10089600600312066BD0E0B56FE87F4512067E78DE
:1008A6006CE67F2B30E7047F2DF404C0E012068C43
:1008B600D0E075F00A84C0F0120675D0E012067515
:1008C6000206C5791080027908C206C2088008D2DD
:1008D600D5790A8004790AC2D5E56F047002F56FEE
:1008E600E4FAFDFEFF120651FC7B082001131206F6
:1008F60051FD7B1030000A120651FE120651FF7B95
:1009060020EC3382D592D55013C3E43000069FFF06
:10091600E49EFEE42001039DFDE49CFCE4CBF8C2CA
:1009260001EC700CCFCECDCCE824F8F870F380172C
:10093600C3EF33FFEE33FEED33FDEC33FCEB33FB5D
:10094600994002FB0FD8E9EB300105F8D0E0C44826
:10095600B201C0E00AEC4D4E4F78207B0070C2EA2F
:10096600B56F0040BCC0E01209ECD0F0D0E0200129
:1009760004C4C0E0C4B201C0F0120675D0F0D5F0D0
:10098600EB0206C512062B07625308C95807334CFB
:10099600072F4208CD4F08D54408D54907484308D4
:1009A600DB55080C46086A4507D6470AA1500737A3
:1009B6002D073B2E075E2B073F23075C200A8A2A5A
:1009C60006F74800000756E56FB4FF03756F061279
:1009D6000651FC120651FD120651FE120651FF7811
:1009E600650203F4790AA2D5200314300509B9106B
:1009F600020404B9080104A2D5200602500104200D
:100A060002689202B56E005034C0E07F20300319B0
:100A16007F30A20272067205500F120A43C202C24A
:100A260006C205C2087F30800F300503E9C0E01218
:100A3600068C300503D0E0F9D0E0B56ECC30051752
:100A46007F30B9100C12068C7F583004077F7880EF
:100A560003B9080312068C3002057F2D02068C7F2F
:100A6600202008F87F2B2006F322920280CF7F00F9
:100A7600B4070050052465F8E6FF22286E756C6CF5
:100A86002900D2011206513001F8C201786E30D524
:100A96000108F60206F72D50434958120651240361
:100AA600B405004001E4900A9C9312067D743A1244
:0A0AB600067DD203756E040208C924
:10037B00E9D2E7C933E833F892D5EDD2E7CD33ECC8
:07038B0033FC5002B2D52241
:10039200EC30E7100FBF000C0EBE00080DBD0004CC
:1003A2000BEB6014A2D5EB13FCED92E7FD2274FF78
:1003B200FCFDFEFF22E480F8A2D574FF13FC7D80D1
:0303C200E480EFE5
:1003C500F920E72824F950037907E4F42402FB18FF
:1003D500DBFDE624FB5014E9600DE4F618E604F6AF
:0F03E500B40A08E4F6D9F57401F60A22C2D5224B
:1003F400ED33EC3392D5FA602AB4FF33EDC2E77BD8
:10040400FF60067A047919E4227A04792220D5045B
:100414007A04791D224E614E002B494E46002D4927
:100424004E4600E47A08F608DAFC7B00740722E8FA
:10043400C0E0ECC0E0EDC0E0EEC0E0EFC0E0EA7583
:10044400F010A4CAABF075F04DA42BFBE435F0FC1E
:10045400EA2410FAEB34C5FBEC34D9FCEDC2E7FF17
:1004640075F056A4F42411C5F0F434C58FF0A42A11
:10047400E5F03BE43CF620E714120527D0E0FFD07A
:10048400E0FED0E0FDD0E0FC1202278014F4041258
:100494000527D0E0FFD0E0FED0E0FDD0E0FC120163
:1004A4001ED0E0F8E6FAEDD2E7CD33EC332482FB3C
:1004B400E4C3CF33CFCE33CECD33CD33DBF37B07A1
:1004C40075F00A846004F6081B0AE5F0F6088FF05C
:1004D400740AA4FFACF08EF0740AA42CFEACF050A5
:1004E400010C8DF0740AA42CFDE435F0F608DBDE73
:0304F40074072268
:1004F7003F8000004120000042C80000447A00000D
:10050700461C400047C35000497424004B1896808E
:100517004CBEBC205A0E1BCA6753C21C749DC5AE85
:10052700FB60065407601C2323120555EB54386003
:100537000912054112055012011EECF8EDF9EEFA09
:10054700EFCB22EB12055080F1543803241C9004A2
:10055700F7FE93FC0EEE93FD0EEE930ECE93FF2265
:100CF700020AC0E493A3F8E493A34003F68001F249
:100D070008DFF48029E493A3F85407240CC8C333FD
:100D1700C4540F4420C8834004F456800146F6DFCC
:100D2700E4800B0102040810204080900F63E47EEA
:100D3700019360BCA3FF543F30E509541FFEE493C1
:100D4700A360010ECF54C025E060A840B8E493A388
:100D5700FAE493A3F8E493A3C8C582C8CAC583CAB3
:100D6700F0A3C8C582C8CAC583CADFE9DEE780BE6B
:010F70000080
:10056700BB010689828A83E0225002E722BBFE0292
:09057700E32289828A83E49322C5
:10058000BB010CE58229F582E5833AF583E0225030
:1005900006E92582F8E622BBFE06E92582F8E2227A
:0D05A000E58229F582E5833AF583E4932294
:1005AD00BB010689828A83F0225002F722BBFE012D
:0205BD00F32227
:0E05BF00C3E49FFFE49EFEE49DFDE49CFC224D
:1005CD00EB9FF5F0EA9E42F0E99D42F0E89C45F084
:0105DD0022FB
:0C05DE00ECF0A3EDF0A3EEF0A3EFF02290
:1005EA00A8828583F0D083D08212060112060112F6
:1005FA000601120601E473E493A3C583C5F0C5831B
:10060A00C8C582C8F0A3C583C5F0C583C8C582C85A
:01061A0022BD
:10061B00FAE6FB0808E6F925F0F618E6CA3AF622E0
:10062B00D083D082F8E4937012740193700DA3A35E
:10063B0093F8740193F5828883E473740293686072
:06064B00EFA3A3A380DF72
:100E8000EFB40A07740D120E8B740A309811A899EA
:100E9000B8130CC2983098FDA899C298B811F630D2
:070EA00099FDC299F59922AA
:00000001FF
